Archive member included because of file (symbol)

c:/program files (x86)/atmel/atmel toolchain/avr8 gcc/native/3.4.1061/avr8-gnu-toolchain/bin/../lib/gcc/avr/4.8.1/../../../../avr/lib/avr5\libm.a(addsf3.o)
                              EnergyMonitor_G29_MiscFunctions.o (__subsf3)
c:/program files (x86)/atmel/atmel toolchain/avr8 gcc/native/3.4.1061/avr8-gnu-toolchain/bin/../lib/gcc/avr/4.8.1/../../../../avr/lib/avr5\libm.a(addsf3x.o)
                              c:/program files (x86)/atmel/atmel toolchain/avr8 gcc/native/3.4.1061/avr8-gnu-toolchain/bin/../lib/gcc/avr/4.8.1/../../../../avr/lib/avr5\libm.a(addsf3.o) (__addsf3x)
c:/program files (x86)/atmel/atmel toolchain/avr8 gcc/native/3.4.1061/avr8-gnu-toolchain/bin/../lib/gcc/avr/4.8.1/../../../../avr/lib/avr5\libm.a(cmpsf2.o)
                              Electeng209_EnergyMonitor_G29.o (__ltsf2)
c:/program files (x86)/atmel/atmel toolchain/avr8 gcc/native/3.4.1061/avr8-gnu-toolchain/bin/../lib/gcc/avr/4.8.1/../../../../avr/lib/avr5\libm.a(cos.o)
                              EnergyMonitor_G29_VIPFunctions.o (cos)
c:/program files (x86)/atmel/atmel toolchain/avr8 gcc/native/3.4.1061/avr8-gnu-toolchain/bin/../lib/gcc/avr/4.8.1/../../../../avr/lib/avr5\libm.a(divsf3.o)
                              EnergyMonitor_G29_MiscFunctions.o (__divsf3)
c:/program files (x86)/atmel/atmel toolchain/avr8 gcc/native/3.4.1061/avr8-gnu-toolchain/bin/../lib/gcc/avr/4.8.1/../../../../avr/lib/avr5\libm.a(divsf3x.o)
                              c:/program files (x86)/atmel/atmel toolchain/avr8 gcc/native/3.4.1061/avr8-gnu-toolchain/bin/../lib/gcc/avr/4.8.1/../../../../avr/lib/avr5\libm.a(divsf3.o) (__divsf3x)
c:/program files (x86)/atmel/atmel toolchain/avr8 gcc/native/3.4.1061/avr8-gnu-toolchain/bin/../lib/gcc/avr/4.8.1/../../../../avr/lib/avr5\libm.a(fixsfsi.o)
                              EnergyMonitor_G29_GeneralFunctions.o (__fixsfsi)
c:/program files (x86)/atmel/atmel toolchain/avr8 gcc/native/3.4.1061/avr8-gnu-toolchain/bin/../lib/gcc/avr/4.8.1/../../../../avr/lib/avr5\libm.a(fixunssfsi.o)
                              EnergyMonitor_G29_GeneralFunctions.o (__fixunssfsi)
c:/program files (x86)/atmel/atmel toolchain/avr8 gcc/native/3.4.1061/avr8-gnu-toolchain/bin/../lib/gcc/avr/4.8.1/../../../../avr/lib/avr5\libm.a(floatsisf.o)
                              EnergyMonitor_G29_GeneralFunctions.o (__floatunsisf)
c:/program files (x86)/atmel/atmel toolchain/avr8 gcc/native/3.4.1061/avr8-gnu-toolchain/bin/../lib/gcc/avr/4.8.1/../../../../avr/lib/avr5\libm.a(fp_cmp.o)
                              c:/program files (x86)/atmel/atmel toolchain/avr8 gcc/native/3.4.1061/avr8-gnu-toolchain/bin/../lib/gcc/avr/4.8.1/../../../../avr/lib/avr5\libm.a(cmpsf2.o) (__fp_cmp)
c:/program files (x86)/atmel/atmel toolchain/avr8 gcc/native/3.4.1061/avr8-gnu-toolchain/bin/../lib/gcc/avr/4.8.1/../../../../avr/lib/avr5\libm.a(fp_inf.o)
                              c:/program files (x86)/atmel/atmel toolchain/avr8 gcc/native/3.4.1061/avr8-gnu-toolchain/bin/../lib/gcc/avr/4.8.1/../../../../avr/lib/avr5\libm.a(addsf3x.o) (__fp_inf)
c:/program files (x86)/atmel/atmel toolchain/avr8 gcc/native/3.4.1061/avr8-gnu-toolchain/bin/../lib/gcc/avr/4.8.1/../../../../avr/lib/avr5\libm.a(fp_nan.o)
                              c:/program files (x86)/atmel/atmel toolchain/avr8 gcc/native/3.4.1061/avr8-gnu-toolchain/bin/../lib/gcc/avr/4.8.1/../../../../avr/lib/avr5\libm.a(addsf3x.o) (__fp_nan)
c:/program files (x86)/atmel/atmel toolchain/avr8 gcc/native/3.4.1061/avr8-gnu-toolchain/bin/../lib/gcc/avr/4.8.1/../../../../avr/lib/avr5\libm.a(fp_pscA.o)
                              c:/program files (x86)/atmel/atmel toolchain/avr8 gcc/native/3.4.1061/avr8-gnu-toolchain/bin/../lib/gcc/avr/4.8.1/../../../../avr/lib/avr5\libm.a(addsf3x.o) (__fp_pscA)
c:/program files (x86)/atmel/atmel toolchain/avr8 gcc/native/3.4.1061/avr8-gnu-toolchain/bin/../lib/gcc/avr/4.8.1/../../../../avr/lib/avr5\libm.a(fp_pscB.o)
                              c:/program files (x86)/atmel/atmel toolchain/avr8 gcc/native/3.4.1061/avr8-gnu-toolchain/bin/../lib/gcc/avr/4.8.1/../../../../avr/lib/avr5\libm.a(addsf3x.o) (__fp_pscB)
c:/program files (x86)/atmel/atmel toolchain/avr8 gcc/native/3.4.1061/avr8-gnu-toolchain/bin/../lib/gcc/avr/4.8.1/../../../../avr/lib/avr5\libm.a(fp_rempio2.o)
                              c:/program files (x86)/atmel/atmel toolchain/avr8 gcc/native/3.4.1061/avr8-gnu-toolchain/bin/../lib/gcc/avr/4.8.1/../../../../avr/lib/avr5\libm.a(cos.o) (__fp_rempio2)
c:/program files (x86)/atmel/atmel toolchain/avr8 gcc/native/3.4.1061/avr8-gnu-toolchain/bin/../lib/gcc/avr/4.8.1/../../../../avr/lib/avr5\libm.a(fp_round.o)
                              c:/program files (x86)/atmel/atmel toolchain/avr8 gcc/native/3.4.1061/avr8-gnu-toolchain/bin/../lib/gcc/avr/4.8.1/../../../../avr/lib/avr5\libm.a(addsf3.o) (__fp_round)
c:/program files (x86)/atmel/atmel toolchain/avr8 gcc/native/3.4.1061/avr8-gnu-toolchain/bin/../lib/gcc/avr/4.8.1/../../../../avr/lib/avr5\libm.a(fp_sinus.o)
                              c:/program files (x86)/atmel/atmel toolchain/avr8 gcc/native/3.4.1061/avr8-gnu-toolchain/bin/../lib/gcc/avr/4.8.1/../../../../avr/lib/avr5\libm.a(cos.o) (__fp_sinus)
c:/program files (x86)/atmel/atmel toolchain/avr8 gcc/native/3.4.1061/avr8-gnu-toolchain/bin/../lib/gcc/avr/4.8.1/../../../../avr/lib/avr5\libm.a(fp_split3.o)
                              c:/program files (x86)/atmel/atmel toolchain/avr8 gcc/native/3.4.1061/avr8-gnu-toolchain/bin/../lib/gcc/avr/4.8.1/../../../../avr/lib/avr5\libm.a(addsf3x.o) (__fp_split3)
c:/program files (x86)/atmel/atmel toolchain/avr8 gcc/native/3.4.1061/avr8-gnu-toolchain/bin/../lib/gcc/avr/4.8.1/../../../../avr/lib/avr5\libm.a(fp_zero.o)
                              c:/program files (x86)/atmel/atmel toolchain/avr8 gcc/native/3.4.1061/avr8-gnu-toolchain/bin/../lib/gcc/avr/4.8.1/../../../../avr/lib/avr5\libm.a(addsf3x.o) (__fp_zero)
c:/program files (x86)/atmel/atmel toolchain/avr8 gcc/native/3.4.1061/avr8-gnu-toolchain/bin/../lib/gcc/avr/4.8.1/../../../../avr/lib/avr5\libm.a(gesf2.o)
                              Electeng209_EnergyMonitor_G29.o (__gtsf2)
c:/program files (x86)/atmel/atmel toolchain/avr8 gcc/native/3.4.1061/avr8-gnu-toolchain/bin/../lib/gcc/avr/4.8.1/../../../../avr/lib/avr5\libm.a(mulsf3.o)
                              EnergyMonitor_G29_GeneralFunctions.o (__mulsf3)
c:/program files (x86)/atmel/atmel toolchain/avr8 gcc/native/3.4.1061/avr8-gnu-toolchain/bin/../lib/gcc/avr/4.8.1/../../../../avr/lib/avr5\libm.a(mulsf3x.o)
                              c:/program files (x86)/atmel/atmel toolchain/avr8 gcc/native/3.4.1061/avr8-gnu-toolchain/bin/../lib/gcc/avr/4.8.1/../../../../avr/lib/avr5\libm.a(mulsf3.o) (__mulsf3x)
c:/program files (x86)/atmel/atmel toolchain/avr8 gcc/native/3.4.1061/avr8-gnu-toolchain/bin/../lib/gcc/avr/4.8.1/../../../../avr/lib/avr5\libm.a(sqrt.o)
                              EnergyMonitor_G29_VIPFunctions.o (sqrt)
c:/program files (x86)/atmel/atmel toolchain/avr8 gcc/native/3.4.1061/avr8-gnu-toolchain/bin/../lib/gcc/avr/4.8.1/../../../../avr/lib/avr5\libm.a(fp_mpack.o)
                              c:/program files (x86)/atmel/atmel toolchain/avr8 gcc/native/3.4.1061/avr8-gnu-toolchain/bin/../lib/gcc/avr/4.8.1/../../../../avr/lib/avr5\libm.a(sqrt.o) (__fp_mpack)
c:/program files (x86)/atmel/atmel toolchain/avr8 gcc/native/3.4.1061/avr8-gnu-toolchain/bin/../lib/gcc/avr/4.8.1/../../../../avr/lib/avr5\libm.a(fp_norm2.o)
                              c:/program files (x86)/atmel/atmel toolchain/avr8 gcc/native/3.4.1061/avr8-gnu-toolchain/bin/../lib/gcc/avr/4.8.1/../../../../avr/lib/avr5\libm.a(sqrt.o) (__fp_norm2)
c:/program files (x86)/atmel/atmel toolchain/avr8 gcc/native/3.4.1061/avr8-gnu-toolchain/bin/../lib/gcc/avr/4.8.1/../../../../avr/lib/avr5\libm.a(fp_powsodd.o)
                              c:/program files (x86)/atmel/atmel toolchain/avr8 gcc/native/3.4.1061/avr8-gnu-toolchain/bin/../lib/gcc/avr/4.8.1/../../../../avr/lib/avr5\libm.a(fp_sinus.o) (__fp_powsodd)
c:/program files (x86)/atmel/atmel toolchain/avr8 gcc/native/3.4.1061/avr8-gnu-toolchain/bin/../lib/gcc/avr/4.8.1/../../../../avr/lib/avr5\libm.a(fp_powser.o)
                              c:/program files (x86)/atmel/atmel toolchain/avr8 gcc/native/3.4.1061/avr8-gnu-toolchain/bin/../lib/gcc/avr/4.8.1/../../../../avr/lib/avr5\libm.a(fp_powsodd.o) (__fp_powser)
c:/program files (x86)/atmel/atmel toolchain/avr8 gcc/native/3.4.1061/avr8-gnu-toolchain/bin/../lib/gcc/avr/4.8.1/avr5\libgcc.a(_udivmodsi4.o)
                              EnergyMonitor_G29_GeneralFunctions.o (__udivmodsi4)
c:/program files (x86)/atmel/atmel toolchain/avr8 gcc/native/3.4.1061/avr8-gnu-toolchain/bin/../lib/gcc/avr/4.8.1/avr5\libgcc.a(_exit.o)
                              c:/program files (x86)/atmel/atmel toolchain/avr8 gcc/native/3.4.1061/avr8-gnu-toolchain/bin/../lib/gcc/avr/4.8.1/../../../../avr/lib/avr5/crtm328p.o (exit)
c:/program files (x86)/atmel/atmel toolchain/avr8 gcc/native/3.4.1061/avr8-gnu-toolchain/bin/../lib/gcc/avr/4.8.1/avr5\libgcc.a(_clear_bss.o)
                              Electeng209_EnergyMonitor_G29.o (__do_clear_bss)
c:/program files (x86)/atmel/atmel toolchain/avr8 gcc/native/3.4.1061/avr8-gnu-toolchain/bin/../lib/gcc/avr/4.8.1/avr5\libgcc.a(_muluhisi3.o)
                              EnergyMonitor_G29_MiscFunctions.o (__muluhisi3)
c:/program files (x86)/atmel/atmel toolchain/avr8 gcc/native/3.4.1061/avr8-gnu-toolchain/bin/../lib/gcc/avr/4.8.1/avr5\libgcc.a(_umulhisi3.o)
                              c:/program files (x86)/atmel/atmel toolchain/avr8 gcc/native/3.4.1061/avr8-gnu-toolchain/bin/../lib/gcc/avr/4.8.1/avr5\libgcc.a(_muluhisi3.o) (__umulhisi3)
c:/program files (x86)/atmel/atmel toolchain/avr8 gcc/native/3.4.1061/avr8-gnu-toolchain/bin/../lib/gcc/avr/4.8.1/../../../../avr/lib/avr5\libc.a(eerd_word_atmega328p.o)
                              EnergyMonitor_G29_MiscFunctions.o (__eerd_word_m328p)
c:/program files (x86)/atmel/atmel toolchain/avr8 gcc/native/3.4.1061/avr8-gnu-toolchain/bin/../lib/gcc/avr/4.8.1/../../../../avr/lib/avr5\libc.a(eeupd_word_atmega328p.o)
                              EnergyMonitor_G29_MiscFunctions.o (__eeupd_word_m328p)
c:/program files (x86)/atmel/atmel toolchain/avr8 gcc/native/3.4.1061/avr8-gnu-toolchain/bin/../lib/gcc/avr/4.8.1/../../../../avr/lib/avr5\libc.a(eerd_block_atmega328p.o)
                              c:/program files (x86)/atmel/atmel toolchain/avr8 gcc/native/3.4.1061/avr8-gnu-toolchain/bin/../lib/gcc/avr/4.8.1/../../../../avr/lib/avr5\libc.a(eerd_word_atmega328p.o) (__eerd_blraw_m328p)
c:/program files (x86)/atmel/atmel toolchain/avr8 gcc/native/3.4.1061/avr8-gnu-toolchain/bin/../lib/gcc/avr/4.8.1/../../../../avr/lib/avr5\libc.a(eeupd_byte_atmega328p.o)
                              c:/program files (x86)/atmel/atmel toolchain/avr8 gcc/native/3.4.1061/avr8-gnu-toolchain/bin/../lib/gcc/avr/4.8.1/../../../../avr/lib/avr5\libc.a(eeupd_word_atmega328p.o) (__eeupd_byte_m328p)

Allocating common symbols
Common symbol       size              file

address             0x2               Electeng209_EnergyMonitor_G29.o
freq                0x4               Electeng209_EnergyMonitor_G29.o
eepVal              0x2               Electeng209_EnergyMonitor_G29.o
energy              0x2               Electeng209_EnergyMonitor_G29.o
max_address         0x2               Electeng209_EnergyMonitor_G29.o

Discarded input sections

 .data          0x00000000        0x0 c:/program files (x86)/atmel/atmel toolchain/avr8 gcc/native/3.4.1061/avr8-gnu-toolchain/bin/../lib/gcc/avr/4.8.1/../../../../avr/lib/avr5/crtm328p.o
 .bss           0x00000000        0x0 c:/program files (x86)/atmel/atmel toolchain/avr8 gcc/native/3.4.1061/avr8-gnu-toolchain/bin/../lib/gcc/avr/4.8.1/../../../../avr/lib/avr5/crtm328p.o
 .group         0x00000000        0x8 Electeng209_EnergyMonitor_G29.o
 .group         0x00000000        0x8 Electeng209_EnergyMonitor_G29.o
 .group         0x00000000        0x8 Electeng209_EnergyMonitor_G29.o
 .group         0x00000000        0x8 Electeng209_EnergyMonitor_G29.o
 .group         0x00000000        0x8 Electeng209_EnergyMonitor_G29.o
 .group         0x00000000        0x8 Electeng209_EnergyMonitor_G29.o
 .group         0x00000000        0x8 Electeng209_EnergyMonitor_G29.o
 .group         0x00000000        0x8 Electeng209_EnergyMonitor_G29.o
 .group         0x00000000        0x8 Electeng209_EnergyMonitor_G29.o
 .group         0x00000000        0x8 Electeng209_EnergyMonitor_G29.o
 .group         0x00000000        0x8 Electeng209_EnergyMonitor_G29.o
 .group         0x00000000        0x8 Electeng209_EnergyMonitor_G29.o
 .group         0x00000000        0x8 Electeng209_EnergyMonitor_G29.o
 .group         0x00000000        0x8 Electeng209_EnergyMonitor_G29.o
 .group         0x00000000        0x8 Electeng209_EnergyMonitor_G29.o
 .group         0x00000000        0x8 Electeng209_EnergyMonitor_G29.o
Memory Configuration

Name             Origin             Length             Attributes
text             0x00000000         0x00020000         xr
data             0x00800060         0x0000ffa0         rw !x
eeprom           0x00810000         0x00010000         rw !x
fuse             0x00820000         0x00000400         rw !x
lock             0x00830000         0x00000400         rw !x
signature        0x00840000         0x00000400         rw !x
user_signatures  0x00850000         0x00000400         rw !x
*default*        0x00000000         0xffffffff

Linker script and memory map

Address of section .data set to 0x800100
LOAD c:/program files (x86)/atmel/atmel toolchain/avr8 gcc/native/3.4.1061/avr8-gnu-toolchain/bin/../lib/gcc/avr/4.8.1/../../../../avr/lib/avr5/crtm328p.o
LOAD Electeng209_EnergyMonitor_G29.o
LOAD EnergyMonitor_G29_GeneralFunctions.o
LOAD EnergyMonitor_G29_MiscFunctions.o
LOAD EnergyMonitor_G29_VIPFunctions.o
LOAD src/ASF/common/boards/user_board/init.o
START GROUP
LOAD c:/program files (x86)/atmel/atmel toolchain/avr8 gcc/native/3.4.1061/avr8-gnu-toolchain/bin/../lib/gcc/avr/4.8.1/../../../../avr/lib/avr5\libm.a
END GROUP
START GROUP
LOAD c:/program files (x86)/atmel/atmel toolchain/avr8 gcc/native/3.4.1061/avr8-gnu-toolchain/bin/../lib/gcc/avr/4.8.1/avr5\libgcc.a
LOAD c:/program files (x86)/atmel/atmel toolchain/avr8 gcc/native/3.4.1061/avr8-gnu-toolchain/bin/../lib/gcc/avr/4.8.1/../../../../avr/lib/avr5\libm.a
LOAD c:/program files (x86)/atmel/atmel toolchain/avr8 gcc/native/3.4.1061/avr8-gnu-toolchain/bin/../lib/gcc/avr/4.8.1/../../../../avr/lib/avr5\libc.a
END GROUP

.hash
 *(.hash)

.dynsym
 *(.dynsym)

.dynstr
 *(.dynstr)

.gnu.version
 *(.gnu.version)

.gnu.version_d
 *(.gnu.version_d)

.gnu.version_r
 *(.gnu.version_r)

.rel.init
 *(.rel.init)

.rela.init
 *(.rela.init)

.rel.text
 *(.rel.text)
 *(.rel.text.*)
 *(.rel.gnu.linkonce.t*)

.rela.text
 *(.rela.text)
 *(.rela.text.*)
 *(.rela.gnu.linkonce.t*)

.rel.fini
 *(.rel.fini)

.rela.fini
 *(.rela.fini)

.rel.rodata
 *(.rel.rodata)
 *(.rel.rodata.*)
 *(.rel.gnu.linkonce.r*)

.rela.rodata
 *(.rela.rodata)
 *(.rela.rodata.*)
 *(.rela.gnu.linkonce.r*)

.rel.data
 *(.rel.data)
 *(.rel.data.*)
 *(.rel.gnu.linkonce.d*)

.rela.data
 *(.rela.data)
 *(.rela.data.*)
 *(.rela.gnu.linkonce.d*)

.rel.ctors
 *(.rel.ctors)

.rela.ctors
 *(.rela.ctors)

.rel.dtors
 *(.rel.dtors)

.rela.dtors
 *(.rela.dtors)

.rel.got
 *(.rel.got)

.rela.got
 *(.rela.got)

.rel.bss
 *(.rel.bss)

.rela.bss
 *(.rela.bss)

.rel.plt
 *(.rel.plt)

.rela.plt
 *(.rela.plt)

.text           0x00000000     0x124e
 *(.vectors)
 .vectors       0x00000000       0x68 c:/program files (x86)/atmel/atmel toolchain/avr8 gcc/native/3.4.1061/avr8-gnu-toolchain/bin/../lib/gcc/avr/4.8.1/../../../../avr/lib/avr5/crtm328p.o
                0x00000000                __vector_default
                0x00000000                __vectors
 *(.vectors)
 *(.progmem.gcc*)
 .progmem.gcc_fplib
                0x00000068       0x1e c:/program files (x86)/atmel/atmel toolchain/avr8 gcc/native/3.4.1061/avr8-gnu-toolchain/bin/../lib/gcc/avr/4.8.1/../../../../avr/lib/avr5\libm.a(fp_sinus.o)
                0x00000086                . = ALIGN (0x2)
                0x00000086                __trampolines_start = .
 *(.trampolines)
 .trampolines   0x00000086        0x0 linker stubs
 *(.trampolines*)
                0x00000086                __trampolines_end = .
 *(.progmem*)
                0x00000086                . = ALIGN (0x2)
 *(.jumptables)
 *(.jumptables*)
 *(.lowtext)
 *(.lowtext*)
                0x00000086                __ctors_start = .
 *(.ctors)
                0x00000086                __ctors_end = .
                0x00000086                __dtors_start = .
 *(.dtors)
                0x00000086                __dtors_end = .
 SORT(*)(.ctors)
 SORT(*)(.dtors)
 *(.init0)
 .init0         0x00000086        0x0 c:/program files (x86)/atmel/atmel toolchain/avr8 gcc/native/3.4.1061/avr8-gnu-toolchain/bin/../lib/gcc/avr/4.8.1/../../../../avr/lib/avr5/crtm328p.o
                0x00000086                __init
 *(.init0)
 *(.init1)
 *(.init1)
 *(.init2)
 .init2         0x00000086        0xc c:/program files (x86)/atmel/atmel toolchain/avr8 gcc/native/3.4.1061/avr8-gnu-toolchain/bin/../lib/gcc/avr/4.8.1/../../../../avr/lib/avr5/crtm328p.o
 *(.init2)
 *(.init3)
 *(.init3)
 *(.init4)
 .init4         0x00000092       0x10 c:/program files (x86)/atmel/atmel toolchain/avr8 gcc/native/3.4.1061/avr8-gnu-toolchain/bin/../lib/gcc/avr/4.8.1/avr5\libgcc.a(_clear_bss.o)
                0x00000092                __do_clear_bss
 *(.init4)
 *(.init5)
 *(.init5)
 *(.init6)
 *(.init6)
 *(.init7)
 *(.init7)
 *(.init8)
 *(.init8)
 *(.init9)
 .init9         0x000000a2        0x6 c:/program files (x86)/atmel/atmel toolchain/avr8 gcc/native/3.4.1061/avr8-gnu-toolchain/bin/../lib/gcc/avr/4.8.1/../../../../avr/lib/avr5/crtm328p.o
 *(.init9)
 *(.text)
 .text          0x000000a8        0x2 c:/program files (x86)/atmel/atmel toolchain/avr8 gcc/native/3.4.1061/avr8-gnu-toolchain/bin/../lib/gcc/avr/4.8.1/../../../../avr/lib/avr5/crtm328p.o
                0x000000a8                __vector_22
                0x000000a8                __vector_1
                0x000000a8                __vector_24
                0x000000a8                __vector_12
                0x000000a8                __bad_interrupt
                0x000000a8                __vector_6
                0x000000a8                __vector_23
                0x000000a8                __vector_25
                0x000000a8                __vector_11
                0x000000a8                __vector_13
                0x000000a8                __vector_17
                0x000000a8                __vector_19
                0x000000a8                __vector_7
                0x000000a8                __vector_5
                0x000000a8                __vector_4
                0x000000a8                __vector_9
                0x000000a8                __vector_2
                0x000000a8                __vector_21
                0x000000a8                __vector_15
                0x000000a8                __vector_8
                0x000000a8                __vector_14
                0x000000a8                __vector_10
                0x000000a8                __vector_16
                0x000000a8                __vector_18
                0x000000a8                __vector_20
                0x000000aa                . = ALIGN (0x2)
 *(.text.*)
 .text.__vector_3
                0x000000aa       0x4e Electeng209_EnergyMonitor_G29.o
                0x000000aa                __vector_3
 .text.main     0x000000f8       0xcc Electeng209_EnergyMonitor_G29.o
                0x000000f8                main
 .text.UART_Init
                0x000001c4       0x1e EnergyMonitor_G29_GeneralFunctions.o
                0x000001c4                UART_Init
 .text.UART_Transmit
                0x000001e2       0x14 EnergyMonitor_G29_GeneralFunctions.o
                0x000001e2                UART_Transmit
 .text.PasswordTrans
                0x000001f6       0x16 EnergyMonitor_G29_GeneralFunctions.o
                0x000001f6                PasswordTrans
 .text.Frame_format
                0x0000020c       0x58 EnergyMonitor_G29_GeneralFunctions.o
                0x0000020c                Frame_format
 .text.ADC_Init
                0x00000264       0x16 EnergyMonitor_G29_GeneralFunctions.o
                0x00000264                ADC_Init
 .text.get_ADCVal
                0x0000027a       0x34 EnergyMonitor_G29_GeneralFunctions.o
                0x0000027a                get_ADCVal
 .text.Calc_ADCVin
                0x000002ae       0x1e EnergyMonitor_G29_GeneralFunctions.o
                0x000002ae                Calc_ADCVin
 .text.decimalPt_detect
                0x000002cc       0x32 EnergyMonitor_G29_GeneralFunctions.o
                0x000002cc                decimalPt_detect
 .text.MakeArray_Trans
                0x000002fe      0x186 EnergyMonitor_G29_GeneralFunctions.o
                0x000002fe                MakeArray_Trans
 .text.setTimerDelay
                0x00000484       0x52 EnergyMonitor_G29_MiscFunctions.o
                0x00000484                setTimerDelay
 .text.Init_Timer1
                0x000004d6       0x24 EnergyMonitor_G29_MiscFunctions.o
                0x000004d6                Init_Timer1
 .text.setCycleTimer
                0x000004fa       0x66 EnergyMonitor_G29_MiscFunctions.o
                0x000004fa                setCycleTimer
 .text.Init_Analog_Comp
                0x00000560       0x36 EnergyMonitor_G29_MiscFunctions.o
                0x00000560                Init_Analog_Comp
 .text.CalculateFrequency
                0x00000596       0x98 EnergyMonitor_G29_MiscFunctions.o
                0x00000596                CalculateFrequency
 .text.CalculatePhaseShift
                0x0000062e       0xc0 EnergyMonitor_G29_MiscFunctions.o
                0x0000062e                CalculatePhaseShift
 .text.eeprom_reset
                0x000006ee       0x4a EnergyMonitor_G29_MiscFunctions.o
                0x000006ee                eeprom_reset
 .text.eeprom_add
                0x00000738       0x62 EnergyMonitor_G29_MiscFunctions.o
                0x00000738                eeprom_add
 .text.EnergyCalc
                0x0000079a       0x48 EnergyMonitor_G29_MiscFunctions.o
                0x0000079a                EnergyCalc
 .text.CurrentPinSelect
                0x000007e2       0x86 EnergyMonitor_G29_VIPFunctions.o
                0x000007e2                CurrentPinSelect
 .text.Current_calc
                0x00000868       0x30 EnergyMonitor_G29_VIPFunctions.o
                0x00000868                Current_calc
 .text.CurrentMax
                0x00000898       0x86 EnergyMonitor_G29_VIPFunctions.o
                0x00000898                CurrentMax
 .text.Currentfunct
                0x0000091e       0x58 EnergyMonitor_G29_VIPFunctions.o
                0x0000091e                Currentfunct
 .text.RMSval   0x00000976       0xc2 EnergyMonitor_G29_VIPFunctions.o
                0x00000976                RMSval
 .text.Voltagefunct
                0x00000a38       0x4e EnergyMonitor_G29_VIPFunctions.o
                0x00000a38                Voltagefunct
 .text.Powerfunct
                0x00000a86       0xb0 EnergyMonitor_G29_VIPFunctions.o
                0x00000a86                Powerfunct
 .text.Energyfunct
                0x00000b36       0x5c EnergyMonitor_G29_VIPFunctions.o
                0x00000b36                Energyfunct
 .text.PwrVltCrnt_control
                0x00000b92       0x24 EnergyMonitor_G29_VIPFunctions.o
                0x00000b92                PwrVltCrnt_control
 .text.avr-libc.fplib
                0x00000bb6        0xa c:/program files (x86)/atmel/atmel toolchain/avr8 gcc/native/3.4.1061/avr8-gnu-toolchain/bin/../lib/gcc/avr/4.8.1/../../../../avr/lib/avr5\libm.a(addsf3.o)
                0x00000bb6                __subsf3
                0x00000bb8                __addsf3
 .text.avr-libc.fplib
                0x00000bc0       0xc0 c:/program files (x86)/atmel/atmel toolchain/avr8 gcc/native/3.4.1061/avr8-gnu-toolchain/bin/../lib/gcc/avr/4.8.1/../../../../avr/lib/avr5\libm.a(addsf3x.o)
                0x00000bda                __addsf3x
 .text.avr-libc.fplib
                0x00000c80        0x8 c:/program files (x86)/atmel/atmel toolchain/avr8 gcc/native/3.4.1061/avr8-gnu-toolchain/bin/../lib/gcc/avr/4.8.1/../../../../avr/lib/avr5\libm.a(cmpsf2.o)
                0x00000c80                __nesf2
                0x00000c80                __eqsf2
                0x00000c80                __cmpsf2
                0x00000c80                __ltsf2
                0x00000c80                __lesf2
 .text.avr-libc.fplib
                0x00000c88        0x6 c:/program files (x86)/atmel/atmel toolchain/avr8 gcc/native/3.4.1061/avr8-gnu-toolchain/bin/../lib/gcc/avr/4.8.1/../../../../avr/lib/avr5\libm.a(cos.o)
                0x00000c88                cos
 .text.avr-libc.fplib
                0x00000c8e        0x4 c:/program files (x86)/atmel/atmel toolchain/avr8 gcc/native/3.4.1061/avr8-gnu-toolchain/bin/../lib/gcc/avr/4.8.1/../../../../avr/lib/avr5\libm.a(divsf3.o)
                0x00000c8e                __divsf3
 .text.avr-libc.fplib
                0x00000c92       0xcc c:/program files (x86)/atmel/atmel toolchain/avr8 gcc/native/3.4.1061/avr8-gnu-toolchain/bin/../lib/gcc/avr/4.8.1/../../../../avr/lib/avr5\libm.a(divsf3x.o)
                0x00000ca8                __divsf3x
                0x00000cac                __divsf3_pse
 .text.avr-libc.fplib
                0x00000d5e        0xa c:/program files (x86)/atmel/atmel toolchain/avr8 gcc/native/3.4.1061/avr8-gnu-toolchain/bin/../lib/gcc/avr/4.8.1/../../../../avr/lib/avr5\libm.a(fixsfsi.o)
                0x00000d5e                __fixsfsi
 .text.avr-libc.fplib
                0x00000d68       0x58 c:/program files (x86)/atmel/atmel toolchain/avr8 gcc/native/3.4.1061/avr8-gnu-toolchain/bin/../lib/gcc/avr/4.8.1/../../../../avr/lib/avr5\libm.a(fixunssfsi.o)
                0x00000d68                __fixunssfsi
 .text.avr-libc.fplib
                0x00000dc0       0x7a c:/program files (x86)/atmel/atmel toolchain/avr8 gcc/native/3.4.1061/avr8-gnu-toolchain/bin/../lib/gcc/avr/4.8.1/../../../../avr/lib/avr5\libm.a(floatsisf.o)
                0x00000dc0                __floatunsisf
                0x00000dc4                __floatsisf
 .text.avr-libc.fplib
                0x00000e3a       0x48 c:/program files (x86)/atmel/atmel toolchain/avr8 gcc/native/3.4.1061/avr8-gnu-toolchain/bin/../lib/gcc/avr/4.8.1/../../../../avr/lib/avr5\libm.a(fp_cmp.o)
                0x00000e3a                __fp_cmp
 .text.avr-libc.fplib
                0x00000e82        0xc c:/program files (x86)/atmel/atmel toolchain/avr8 gcc/native/3.4.1061/avr8-gnu-toolchain/bin/../lib/gcc/avr/4.8.1/../../../../avr/lib/avr5\libm.a(fp_inf.o)
                0x00000e82                __fp_inf
 .text.avr-libc.fplib
                0x00000e8e        0x6 c:/program files (x86)/atmel/atmel toolchain/avr8 gcc/native/3.4.1061/avr8-gnu-toolchain/bin/../lib/gcc/avr/4.8.1/../../../../avr/lib/avr5\libm.a(fp_nan.o)
                0x00000e8e                __fp_nan
 .text.avr-libc.fplib
                0x00000e94        0xe c:/program files (x86)/atmel/atmel toolchain/avr8 gcc/native/3.4.1061/avr8-gnu-toolchain/bin/../lib/gcc/avr/4.8.1/../../../../avr/lib/avr5\libm.a(fp_pscA.o)
                0x00000e94                __fp_pscA
 .text.avr-libc.fplib
                0x00000ea2        0xe c:/program files (x86)/atmel/atmel toolchain/avr8 gcc/native/3.4.1061/avr8-gnu-toolchain/bin/../lib/gcc/avr/4.8.1/../../../../avr/lib/avr5\libm.a(fp_pscB.o)
                0x00000ea2                __fp_pscB
 .text.avr-libc.fplib
                0x00000eb0       0x50 c:/program files (x86)/atmel/atmel toolchain/avr8 gcc/native/3.4.1061/avr8-gnu-toolchain/bin/../lib/gcc/avr/4.8.1/../../../../avr/lib/avr5\libm.a(fp_rempio2.o)
                0x00000eb2                __fp_rempio2
 .text.avr-libc.fplib
                0x00000f00       0x22 c:/program files (x86)/atmel/atmel toolchain/avr8 gcc/native/3.4.1061/avr8-gnu-toolchain/bin/../lib/gcc/avr/4.8.1/../../../../avr/lib/avr5\libm.a(fp_round.o)
                0x00000f00                __fp_round
 .text.avr-libc.fplib
                0x00000f22       0x22 c:/program files (x86)/atmel/atmel toolchain/avr8 gcc/native/3.4.1061/avr8-gnu-toolchain/bin/../lib/gcc/avr/4.8.1/../../../../avr/lib/avr5\libm.a(fp_sinus.o)
                0x00000f22                __fp_sinus
 .text.avr-libc.fplib
                0x00000f44       0x44 c:/program files (x86)/atmel/atmel toolchain/avr8 gcc/native/3.4.1061/avr8-gnu-toolchain/bin/../lib/gcc/avr/4.8.1/../../../../avr/lib/avr5\libm.a(fp_split3.o)
                0x00000f44                __fp_split3
                0x00000f54                __fp_splitA
 .text.avr-libc.fplib
                0x00000f88        0xe c:/program files (x86)/atmel/atmel toolchain/avr8 gcc/native/3.4.1061/avr8-gnu-toolchain/bin/../lib/gcc/avr/4.8.1/../../../../avr/lib/avr5\libm.a(fp_zero.o)
                0x00000f88                __fp_zero
                0x00000f8a                __fp_szero
 .text.avr-libc.fplib
                0x00000f96        0x8 c:/program files (x86)/atmel/atmel toolchain/avr8 gcc/native/3.4.1061/avr8-gnu-toolchain/bin/../lib/gcc/avr/4.8.1/../../../../avr/lib/avr5\libm.a(gesf2.o)
                0x00000f96                __gesf2
                0x00000f96                __gtsf2
 .text.avr-libc.fplib
                0x00000f9e        0x4 c:/program files (x86)/atmel/atmel toolchain/avr8 gcc/native/3.4.1061/avr8-gnu-toolchain/bin/../lib/gcc/avr/4.8.1/../../../../avr/lib/avr5\libm.a(mulsf3.o)
                0x00000f9e                __mulsf3
 .text.avr-libc.fplib
                0x00000fa2       0xc2 c:/program files (x86)/atmel/atmel toolchain/avr8 gcc/native/3.4.1061/avr8-gnu-toolchain/bin/../lib/gcc/avr/4.8.1/../../../../avr/lib/avr5\libm.a(mulsf3x.o)
                0x00000fb6                __mulsf3x
                0x00000fba                __mulsf3_pse
 .text.avr-libc.fplib
                0x00001064       0x84 c:/program files (x86)/atmel/atmel toolchain/avr8 gcc/native/3.4.1061/avr8-gnu-toolchain/bin/../lib/gcc/avr/4.8.1/../../../../avr/lib/avr5\libm.a(sqrt.o)
                0x0000106c                sqrt
 .text.avr-libc.fplib
                0x000010e8       0x1c c:/program files (x86)/atmel/atmel toolchain/avr8 gcc/native/3.4.1061/avr8-gnu-toolchain/bin/../lib/gcc/avr/4.8.1/../../../../avr/lib/avr5\libm.a(fp_mpack.o)
                0x000010e8                __fp_mpack
                0x000010ec                __fp_mpack_finite
 .text.avr-libc.fplib
                0x00001104        0xe c:/program files (x86)/atmel/atmel toolchain/avr8 gcc/native/3.4.1061/avr8-gnu-toolchain/bin/../lib/gcc/avr/4.8.1/../../../../avr/lib/avr5\libm.a(fp_norm2.o)
                0x00001104                __fp_norm2
 .text.avr-libc.fplib
                0x00001112       0x22 c:/program files (x86)/atmel/atmel toolchain/avr8 gcc/native/3.4.1061/avr8-gnu-toolchain/bin/../lib/gcc/avr/4.8.1/../../../../avr/lib/avr5\libm.a(fp_powsodd.o)
                0x00001112                __fp_powsodd
 .text.avr-libc.fplib
                0x00001134       0x4a c:/program files (x86)/atmel/atmel toolchain/avr8 gcc/native/3.4.1061/avr8-gnu-toolchain/bin/../lib/gcc/avr/4.8.1/../../../../avr/lib/avr5\libm.a(fp_powser.o)
                0x00001134                __fp_powser
 .text.libgcc.div
                0x0000117e       0x44 c:/program files (x86)/atmel/atmel toolchain/avr8 gcc/native/3.4.1061/avr8-gnu-toolchain/bin/../lib/gcc/avr/4.8.1/avr5\libgcc.a(_udivmodsi4.o)
                0x0000117e                __udivmodsi4
 .text.libgcc.mul
                0x000011c2       0x14 c:/program files (x86)/atmel/atmel toolchain/avr8 gcc/native/3.4.1061/avr8-gnu-toolchain/bin/../lib/gcc/avr/4.8.1/avr5\libgcc.a(_muluhisi3.o)
                0x000011c2                __muluhisi3
 .text.libgcc.mul
                0x000011d6       0x1e c:/program files (x86)/atmel/atmel toolchain/avr8 gcc/native/3.4.1061/avr8-gnu-toolchain/bin/../lib/gcc/avr/4.8.1/avr5\libgcc.a(_umulhisi3.o)
                0x000011d6                __umulhisi3
 .text.avr-libc
                0x000011f4        0xa c:/program files (x86)/atmel/atmel toolchain/avr8 gcc/native/3.4.1061/avr8-gnu-toolchain/bin/../lib/gcc/avr/4.8.1/../../../../avr/lib/avr5\libc.a(eerd_word_atmega328p.o)
                0x000011f4                __eerd_word_m328p
 .text.avr-libc
                0x000011fe        0x8 c:/program files (x86)/atmel/atmel toolchain/avr8 gcc/native/3.4.1061/avr8-gnu-toolchain/bin/../lib/gcc/avr/4.8.1/../../../../avr/lib/avr5\libc.a(eeupd_word_atmega328p.o)
                0x000011fe                __eeupd_word_m328p
 .text.avr-libc
                0x00001206       0x20 c:/program files (x86)/atmel/atmel toolchain/avr8 gcc/native/3.4.1061/avr8-gnu-toolchain/bin/../lib/gcc/avr/4.8.1/../../../../avr/lib/avr5\libc.a(eerd_block_atmega328p.o)
                0x00001206                __eerd_block_m328p
                0x0000120a                __eerd_blraw_m328p
 .text.avr-libc
                0x00001226       0x24 c:/program files (x86)/atmel/atmel toolchain/avr8 gcc/native/3.4.1061/avr8-gnu-toolchain/bin/../lib/gcc/avr/4.8.1/../../../../avr/lib/avr5\libc.a(eeupd_byte_atmega328p.o)
                0x00001226                __eeupd_byte_m328p
                0x00001228                __eeupd_r18_m328p
                0x0000124a                . = ALIGN (0x2)
 *(.fini9)
 .fini9         0x0000124a        0x0 c:/program files (x86)/atmel/atmel toolchain/avr8 gcc/native/3.4.1061/avr8-gnu-toolchain/bin/../lib/gcc/avr/4.8.1/avr5\libgcc.a(_exit.o)
                0x0000124a                _exit
                0x0000124a                exit
 *(.fini9)
 *(.fini8)
 *(.fini8)
 *(.fini7)
 *(.fini7)
 *(.fini6)
 *(.fini6)
 *(.fini5)
 *(.fini5)
 *(.fini4)
 *(.fini4)
 *(.fini3)
 *(.fini3)
 *(.fini2)
 *(.fini2)
 *(.fini1)
 *(.fini1)
 *(.fini0)
 .fini0         0x0000124a        0x4 c:/program files (x86)/atmel/atmel toolchain/avr8 gcc/native/3.4.1061/avr8-gnu-toolchain/bin/../lib/gcc/avr/4.8.1/avr5\libgcc.a(_exit.o)
 *(.fini0)
                0x0000124e                _etext = .

.data           0x00800100        0x0 load address 0x0000124e
                0x00800100                PROVIDE (__data_start, .)
 *(.data)
 *(.data*)
 *(.rodata)
 *(.rodata*)
 *(.gnu.linkonce.d*)
                0x00800100                . = ALIGN (0x2)
                0x00800100                _edata = .
                0x00800100                PROVIDE (__data_end, .)

.bss            0x00800100        0xc
                0x00800100                PROVIDE (__bss_start, .)
 *(.bss)
 *(.bss*)
 *(COMMON)
 COMMON         0x00800100        0xc Electeng209_EnergyMonitor_G29.o
                0x00800100                address
                0x00800102                freq
                0x00800106                eepVal
                0x00800108                energy
                0x0080010a                max_address
                0x0080010c                PROVIDE (__bss_end, .)
                0x0000124e                __data_load_start = LOADADDR (.data)
                0x0000124e                __data_load_end = (__data_load_start + SIZEOF (.data))

.noinit         0x0080010c        0x0
                0x0080010c                PROVIDE (__noinit_start, .)
 *(.noinit*)
                0x0080010c                PROVIDE (__noinit_end, .)
                0x0080010c                _end = .
                0x0080010c                PROVIDE (__heap_start, .)

.eeprom         0x00810000        0x0
 *(.eeprom*)
                0x00810000                __eeprom_end = .

.fuse
 *(.fuse)
 *(.lfuse)
 *(.hfuse)
 *(.efuse)

.lock
 *(.lock*)

.signature
 *(.signature*)

.user_signatures
 *(.user_signatures*)

.stab
 *(.stab)

.stabstr
 *(.stabstr)

.stab.excl
 *(.stab.excl)

.stab.exclstr
 *(.stab.exclstr)

.stab.index
 *(.stab.index)

.stab.indexstr
 *(.stab.indexstr)

.comment        0x00000000       0x30
 *(.comment)
 .comment       0x00000000       0x30 Electeng209_EnergyMonitor_G29.o
                                 0x31 (size before relaxing)
 .comment       0x00000000       0x31 EnergyMonitor_G29_GeneralFunctions.o
 .comment       0x00000000       0x31 EnergyMonitor_G29_MiscFunctions.o
 .comment       0x00000000       0x31 EnergyMonitor_G29_VIPFunctions.o

.note.gnu.build-id
 *(.note.gnu.build-id)

.debug
 *(.debug)

.line
 *(.line)

.debug_srcinfo
 *(.debug_srcinfo)

.debug_sfnames
 *(.debug_sfnames)

.debug_aranges  0x00000000      0x160
 *(.debug_aranges)
 .debug_aranges
                0x00000000       0x28 Electeng209_EnergyMonitor_G29.o
 .debug_aranges
                0x00000028       0x70 EnergyMonitor_G29_GeneralFunctions.o
 .debug_aranges
                0x00000098       0x60 EnergyMonitor_G29_MiscFunctions.o
 .debug_aranges
                0x000000f8       0x68 EnergyMonitor_G29_VIPFunctions.o

.debug_pubnames
 *(.debug_pubnames)

.debug_info     0x00000000     0x13d7
 *(.debug_info .gnu.linkonce.wi.*)
 .debug_info    0x00000000      0x1f3 Electeng209_EnergyMonitor_G29.o
 .debug_info    0x000001f3      0x4aa EnergyMonitor_G29_GeneralFunctions.o
 .debug_info    0x0000069d      0x422 EnergyMonitor_G29_MiscFunctions.o
 .debug_info    0x00000abf      0x918 EnergyMonitor_G29_VIPFunctions.o

.debug_abbrev   0x00000000      0x84f
 *(.debug_abbrev)
 .debug_abbrev  0x00000000      0x11a Electeng209_EnergyMonitor_G29.o
 .debug_abbrev  0x0000011a      0x272 EnergyMonitor_G29_GeneralFunctions.o
 .debug_abbrev  0x0000038c      0x1df EnergyMonitor_G29_MiscFunctions.o
 .debug_abbrev  0x0000056b      0x2e4 EnergyMonitor_G29_VIPFunctions.o

.debug_line     0x00000000     0x14c2
 *(.debug_line .debug_line.* .debug_line_end)
 .debug_line    0x00000000      0x33c Electeng209_EnergyMonitor_G29.o
 .debug_line    0x0000033c      0x5ba EnergyMonitor_G29_GeneralFunctions.o
 .debug_line    0x000008f6      0x54d EnergyMonitor_G29_MiscFunctions.o
 .debug_line    0x00000e43      0x67f EnergyMonitor_G29_VIPFunctions.o

.debug_frame    0x00000000      0x48c
 *(.debug_frame)
 .debug_frame   0x00000000       0x7c Electeng209_EnergyMonitor_G29.o
 .debug_frame   0x0000007c      0x124 EnergyMonitor_G29_GeneralFunctions.o
 .debug_frame   0x000001a0      0x11c EnergyMonitor_G29_MiscFunctions.o
 .debug_frame   0x000002bc      0x1d0 EnergyMonitor_G29_VIPFunctions.o

.debug_str      0x00000000     0x7d91
 *(.debug_str)
 .debug_str     0x00000000     0x7516 Electeng209_EnergyMonitor_G29.o
                               0x76f6 (size before relaxing)
 .debug_str     0x00007516      0x599 EnergyMonitor_G29_GeneralFunctions.o
                               0x6def (size before relaxing)
 .debug_str     0x00007aaf      0x112 EnergyMonitor_G29_MiscFunctions.o
                               0x76c5 (size before relaxing)
 .debug_str     0x00007bc1      0x1d0 EnergyMonitor_G29_VIPFunctions.o
                               0x780d (size before relaxing)

.debug_loc      0x00000000     0x1851
 *(.debug_loc)
 .debug_loc     0x00000000       0xea Electeng209_EnergyMonitor_G29.o
 .debug_loc     0x000000ea      0x754 EnergyMonitor_G29_GeneralFunctions.o
 .debug_loc     0x0000083e      0x52d EnergyMonitor_G29_MiscFunctions.o
 .debug_loc     0x00000d6b      0xae6 EnergyMonitor_G29_VIPFunctions.o

.debug_macinfo
 *(.debug_macinfo)

.debug_weaknames
 *(.debug_weaknames)

.debug_funcnames
 *(.debug_funcnames)

.debug_typenames
 *(.debug_typenames)

.debug_varnames
 *(.debug_varnames)

.debug_pubtypes
 *(.debug_pubtypes)

.debug_ranges   0x00000000      0x158
 *(.debug_ranges)
 .debug_ranges  0x00000000       0x18 Electeng209_EnergyMonitor_G29.o
 .debug_ranges  0x00000018       0x60 EnergyMonitor_G29_GeneralFunctions.o
 .debug_ranges  0x00000078       0x50 EnergyMonitor_G29_MiscFunctions.o
 .debug_ranges  0x000000c8       0x90 EnergyMonitor_G29_VIPFunctions.o

.debug_macro    0x00000000     0x3055
 *(.debug_macro)
 .debug_macro   0x00000000       0xfc Electeng209_EnergyMonitor_G29.o
 .debug_macro   0x000000fc      0xa30 Electeng209_EnergyMonitor_G29.o
 .debug_macro   0x00000b2c       0x10 Electeng209_EnergyMonitor_G29.o
 .debug_macro   0x00000b3c      0x1ad Electeng209_EnergyMonitor_G29.o
 .debug_macro   0x00000ce9      0x293 Electeng209_EnergyMonitor_G29.o
 .debug_macro   0x00000f7c       0x9e Electeng209_EnergyMonitor_G29.o
 .debug_macro   0x0000101a     0x13ae Electeng209_EnergyMonitor_G29.o
 .debug_macro   0x000023c8      0x13a Electeng209_EnergyMonitor_G29.o
 .debug_macro   0x00002502       0xbd Electeng209_EnergyMonitor_G29.o
 .debug_macro   0x000025bf       0x34 Electeng209_EnergyMonitor_G29.o
 .debug_macro   0x000025f3       0x18 Electeng209_EnergyMonitor_G29.o
 .debug_macro   0x0000260b       0x6c Electeng209_EnergyMonitor_G29.o
 .debug_macro   0x00002677       0x69 Electeng209_EnergyMonitor_G29.o
 .debug_macro   0x000026e0       0x58 Electeng209_EnergyMonitor_G29.o
 .debug_macro   0x00002738       0x10 Electeng209_EnergyMonitor_G29.o
 .debug_macro   0x00002748       0x97 Electeng209_EnergyMonitor_G29.o
 .debug_macro   0x000027df       0xeb Electeng209_EnergyMonitor_G29.o
 .debug_macro   0x000028ca       0x88 Electeng209_EnergyMonitor_G29.o
 .debug_macro   0x00002952       0xef Electeng209_EnergyMonitor_G29.o
 .debug_macro   0x00002a41       0x3c Electeng209_EnergyMonitor_G29.o
 .debug_macro   0x00002a7d       0xd7 EnergyMonitor_G29_GeneralFunctions.o
 .debug_macro   0x00002b54       0x10 EnergyMonitor_G29_GeneralFunctions.o
 .debug_macro   0x00002b64      0x16d EnergyMonitor_G29_GeneralFunctions.o
 .debug_macro   0x00002cd1       0x22 EnergyMonitor_G29_GeneralFunctions.o
 .debug_macro   0x00002cf3       0xef EnergyMonitor_G29_MiscFunctions.o
 .debug_macro   0x00002de2      0x166 EnergyMonitor_G29_MiscFunctions.o
 .debug_macro   0x00002f48      0x10d EnergyMonitor_G29_VIPFunctions.o
OUTPUT(Electeng209_EnergyMonitor_G29.elf elf32-avr)
LOAD linker stubs
